:020000040800F2
:1000000000000220D9050008550500085D0500081C
:10001000650500086D050008750500080000000072
:100020000000000000000000000000007D05000846
:100030008B0500080000000099050008A7050008CE
:1000400029060008290600082906000829060008D4
:1000500029060008290600082906000829060008C4
:1000600029060008290600082906000829060008B4
:1000700029060008290600082906000829060008A4
:1000800029060008290600082906000800000000CB
:100090000000000000000000000000002906000829
:1000A0002906000829060008290600082906000874
:1000B0002906000829060008290600082906000864
:1000C0002906000829060008290600082906000854
:1000D000290600082906000829060008000000007B
:1000E000290600082906000829060008000000006B
:1000F00000000000000000000000000029060008C9
:10010000000000002906000829060008290600084A
:1001100000000000000000000000000000000000DF
:1001200029060008290600082906000829060008F3
:100130002906000800000000000000000000000088
:100140000000000000000000000000002906000878
:1001500029060008290600082906000829060008C3
:100160002906000829060008000000000000000021
:10017000000000000000000000000000000000007F
:100180000000000029060008000000000000000038
:080190002906000829060008F9
:1001980010B5054C237833B9044B13B10448AFF3B9
:1001A80000800123237010BD0C0000200000000017
:1001B8006C21000808B5034B1BB103490348AFF392
:1001C800008008BD00000000100000206C2100081D
:1001D80053B94AB9002908BF00281CBF4FF0FF31A6
:1001E8004FF0FF3000F088B9ADF1080C6DE904CE8E
:1001F80000F006F8DDF804E0DDE9022304B07047FA
:100208002DE9F047089D8E4604468846002B4AD1C2
:100218008A42174662D9B2FA82F64EB1C6F1200375
:1002280001FA06F820FA03F3B74043EA0808B44095
:100238004FEA174E1FFA87FCB8FBFEF1230C0EFBA2
:10024800118843EA084301FB0CF29A4209D9FB18CA
:1002580001F1FF3080F0EA809A4240F2E7800239EB
:100268003B449A1AA3B2B2FBFEF00EFB102243EAFB
:10027800024300FB0CFC9C4509D9FB1800F1FF3236
:1002880080F0D6809C4540F2D3803B44023840EA57
:100298000140A3EB0C0300211DB1F3400022C5E986
:1002A8000032BDE8F0878B4205D90DB1C5E90001E0
:1002B80000210846F5E7B3FA83F1002946D17345D2
:1002C80002D3824200F20581841A6EEB03020120F8
:1002D8009046002DE5D0C5E90048E2E7002A00F085
:1002E8009080B2FA82F6002E40F0A4808A1A030C9D
:1002F8004FEA174E80B2BCB20121B2FBFEFC0EFBE6
:100308001C2243EA024304FB0CF29A4207D9FB1869
:100318000CF1FF3802D29A4200F2E080C4469B1AE0
:10032800B3FBFEF20EFB123340EA034302FB04F474
:100338009C4207D9FB1802F1FF3002D29C4200F21E
:10034800CA8002461B1B42EA0C40A5E7C1F1200601
:100358008B4022FA06F71F430EFA01F420FA06F33F
:100368002EFA06FE4FEA1749234300FA01F81FFA4E
:1003780087FCBEFBF9F01C0C09FB10EE44EA0E44A6
:1003880000FB0CFEA64502FA01F209D93C1900F15E
:10039800FF3A80F09C80A64540F2998002383C44A0
:1003A800A4EB0E041FFA83FEB4FBF9F309FB134414
:1003B8004EEA044403FB0CFCA44508D93C1903F19C
:1003C800FF3E80F08280A4457FD9023B3C4443EA4B
:1003D8000040A4EB0C04A0FB02EC64457346E14624
:1003E80062D35FD05DB1B8EB030264EB090404FA91
:1003F80006F622FA01F31E43CC40C5E90064002149
:100408004FE7B1FBF2FC010C41EA0E4180B240EA31
:1004180001423B4638463C46B846BE462026B1FB1C
:10042800F7F1A2EB080241EA0C4166E7014618E73A
:1004380010462CE7C6F120022EFA02F3B740B1406D
:1004480020FA02F24FEA174E0A43B3FBFEF8BCB299
:100458000EFB1833110C41EA034108FB04F9B040C4
:1004680089454FEA104380B23ED9791808F1FF3C1C
:1004780001D289451FD8A1EB0901B1FBFEF909FB9F
:1004880004F80EFB191192B242EA0142424529D200
:10049800BA1809F1FF31C4D24245C2D2A9F102010A
:1004A8003A44BEE7F0459DD2BEEB02036CEB070C65
:1004B8000138E14696E7A7EB09094944A8F1020C7F
:1004C800B1FBFEF909FB04F8DBE773467FE750460A
:1004D80066E70846FDE63B44023A33E7ACF1020C16
:1004E8003B441CE749469CE7A1EB0901C446B1FB24
:1004F800FEF909FB04F8C4E7704700BF80B483B075
:1005080000AF00237B60104B5B6C0F4A43F48043C1
:1005180053640D4B5B6C03F480437B607B68002362
:100528003B60094B1B6C084A43F080531364064B2D
:100538001B6C03F080533B603B6800BF0C37BD4623
:100548005DF8047B704700BF0038024080B400AFFC
:1005580000BFFDE780B400AF00BFFDE780B400AF87
:1005680000BFFDE780B400AF00BFFDE780B400AF77
:1005780000BFFDE780B400AF00BFBD465DF8047B57
:10058800704780B400AF00BFBD465DF8047B70477C
:1005980080B400AF00BFBD465DF8047B704780B5EE
:1005A80000AF00F091F800BF80BD000080B400AF3C
:1005B800064BD3F88830054A43F47003C2F88830F4
:1005C80000BFBD465DF8047B704700BF00ED00E04A
:1005D800DFF834D0FFF7EAFF0C480D490D4A002335
:1005E80002E0D458C4500433C4188C42F9D30A4AE0
:1005F8000A4C002301E013600432A242FBD301F04D
:100608008DFD01F0EFFC7047000002200000002083
:100618000C000020AC2100080C0000207400002011
:10062800FEE7000080B500AF0E4B1B680D4A43F48F
:10063800007313600B4B1B680A4A43F48063136012
:10064800084B1B68074A43F480731360032000F0CB
:1006580031F90F2000F008F8FFF750FF0023184683
:1006680080BD00BF003C024080B582B000AF78601A
:10067800124B1A68124B1B7819464FF47A73B3FB66
:10068800F1F3B2FBF3F3184600F03BF90346002BF5
:1006980001D001230EE07B680F2B0AD8002279686D
:1006A8004FF0FF3000F011F9064A7B681360002311
:1006B80000E0012318460837BD4680BD0000002031
:1006C800080000200400002080B400AF064B1B780F
:1006D8001A46064B1B681344044A136000BFBD4604
:1006E8005DF8047B704700BF080000202800002048
:1006F80080B400AF034B1B681846BD465DF8047B09
:10070800704700BF2800002080B584B000AF786033
:10071800FFF7EEFFB8607B68FB60FB68B3F1FF3F53
:1007280005D00A4B1B781A46FB681344FB6000BFD0
:10073800FFF7DEFF0246BB68D31AFA689A42F7D879
:1007480000BF00BF1037BD4680BD00BF08000020B5
:1007580080B485B000AF78607B6803F00703FB6066
:100768000C4BDB68BB60BA684FF6FF031340BB60F5
:10077800FB681A02BB68134343F0BF6343F40033BA
:10078800BB60044ABB68D36000BF1437BD465DF840
:10079800047B704700ED00E080B400AF044BDB68D9
:1007A8001B0A03F007031846BD465DF8047B704733
:1007B80000ED00E080B483B000AF03463960FB7100
:1007C80097F90730002B0ADB3B68DAB20C4997F936
:1007D80007301201D2B20B4483F800230AE03B68C9
:1007E800DAB20849FB7903F00F03043B1201D2B2D5
:1007F8000B441A7600BF0C37BD465DF8047B704782
:1008080000E100E000ED00E080B489B000AFF860DE
:10081800B9607A60FB6803F00703FB61FB69C3F109
:100828000703042B28BF0423BB61FB690433062B91
:1008380002D9FB69033B00E000237B614FF0FF32E4
:10084800BB6902FA03F3DA43BB681A407B699A4032
:100858004FF0FF317B6901FA03F3D9437B680B4002
:10086800134318462437BD465DF8047B70470000E3
:1008780080B582B000AF78607B68013BB3F1807FC0
:1008880001D301230FE00A4A7B68013B53600F2123
:100898004FF0FF30FFF78EFF054B00229A60044BA4
:1008A80007221A60002318460837BD4680BD00BFDE
:1008B80010E000E080B582B000AF78607868FFF79C
:1008C80047FF00BF0837BD4680BD80B586B000AF82
:1008D8000346B9607A60FB7300237B61FFF75CFF16
:1008E80078617A68B9687869FFF78EFF024697F9E8
:1008F8000F3011461846FFF75DFF00BF1837BD4699
:1009080080BD80B582B000AF78607868FFF7B0FF2F
:10091800034618460837BD4680BD000080B489B03C
:1009280000AF7860396000237B6100233B610023BE
:10093800BB610023FB6159E10122FB6902FA03F361
:100948007B613B681B687A6913403B613A697B6944
:100958009A4240F048813B685B6803F00303012B2F
:1009680005D03B685B6803F00303022B30D17B683A
:100978009B68BB61FB695B00032202FA03F3DB435C
:10098800BA691340BB613B68DA68FB695B0002FA2D
:1009980003F3BA691343BB617B68BA699A607B68E1
:1009A8005B68BB610122FB6902FA03F3DB43BA69A6
:1009B8001340BB613B685B681B0903F00102FB69DC
:1009C80002FA03F3BA691343BB617B68BA695A60D8
:1009D8003B685B6803F00303032B17D07B68DB6875
:1009E800BB61FB695B00032202FA03F3DB43BA69CC
:1009F8001340BB613B689A68FB695B0002FA03F32A
:100A0800BA691343BB617B68BA69DA603B685B68A3
:100A180003F00303022B23D1FB69DA087B68083251
:100A280053F82230BB61FB6903F007039B000F22D8
:100A380002FA03F3DB43BA691340BB613B681A69E6
:100A4800FB6903F007039B0002FA03F3BA69134337
:100A5800BB61FB69DA087B680832B96943F8221080
:100A68007B681B68BB61FB695B00032202FA03F326
:100A7800DB43BA691340BB613B685B6803F0030260
:100A8800FB695B0002FA03F3BA691343BB617B6835
:100A9800BA691A603B685B6803F44033002B00F0C6
:100AA800A2800023FB60574B5B6C564A43F480439B
:100AB8005364544B5B6C03F48043FB60FB68524AFD
:100AC800FB699B08023352F82330BB61FB6903F0D2
:100AD80003039B000F2202FA03F3DB43BA691340B6
:100AE800BB617B68494A934219D07B68484A934264
:100AF80013D07B68474A93420DD07B68464A93429D
:100B080007D07B68454A934201D1042308E00723B4
:100B180006E0032304E0022302E0012300E00023AF
:100B2800FA6902F0030292009340BA691343BB6169
:100B38003549FB699B080233BA6941F82320384BD1
:100B48009B68BB613B69DB43BA691340BB613B6887
:100B58005B6803F48013002B03D0BA693B69134325
:100B6800BB612F4ABB6993602D4BDB68BB613B6956
:100B7800DB43BA691340BB613B685B6803F400134D
:100B8800002B03D0BA693B691343BB61244ABB6994
:100B9800D360234B5B68BB613B69DB43BA69134095
:100BA800BB613B685B6803F40033002B03D0BA6970
:100BB8003B691343BB611A4ABB695360184B1B68F6
:100BC800BB613B69DB43BA691340BB613B685B6847
:100BD80003F48033002B03D0BA693B691343BB612C
:100BE8000F4ABB691360FB690133FB61FB690F2B7B
:100BF8007FF6A2AE00BF00BF2437BD465DF8047B78
:100C0800704700BF00380240003801400000024031
:100C18000004024000080240000C0240001002409C
:100C2800003C014080B483B000AF78600B467B8005
:100C380013467B707B78002B03D07A887B689A6197
:100C480003E07B881A047B689A6100BF0C37BD46B5
:100C58005DF8047B7047000080B586B000AF78600F
:100C68007B68002B01D1012367E27B681B6803F0D6
:100C78000103002B75D0884B9B6803F00C03042BF1
:100C88000CD0854B9B6803F00C03082B12D1824BC8
:100C98005B6803F48003B3F5800F0BD17E4B1B68B0
:100CA80003F40033002B5BD07B685B68002B57D1C3
:100CB800012342E27B685B68B3F5803F06D1764B3F
:100CC8001B68754A43F4803313601DE07B685B68DA
:100CD800B3F5A02F0CD1704B1B686F4A43F48023E7
:100CE80013606D4B1B686C4A43F4803313600BE050
:100CF800694B1B68684A23F480331360664B1B6892
:100D0800654A23F4802313607B685B68002B13D04B
:100D1800FFF7EEFC386108E0FFF7EAFC02463B69A2
:100D2800D31A642B01D9032307E25B4B1B6803F436
:100D38000033002BF0D014E0FFF7DAFC386108E04C
:100D4800FFF7D6FC02463B69D31A642B01D903236B
:100D5800F3E1514B1B6803F40033002BF0D100E0A2
:100D680000BF7B681B6803F00203002B63D04A4B6B
:100D78009B6803F00C03002B0BD0474B9B6803F0D8
:100D88000C03082B1CD1444B5B6803F48003002B35
:100D980016D1414B1B6803F00203002B05D07B687A
:100DA800DB68012B01D00123C7E13B4B1B6823F013
:100DB800F8027B681B69DB00374913430B603AE094
:100DC8007B68DB68002B20D0344B01221A60FFF7C8
:100DD8008FFC386108E0FFF78BFC02463B69D31AA9
:100DE800022B01D90323A8E12B4B1B6803F0020354
:100DF800002BF0D0284B1B6823F0F8027B681B6996
:100E0800DB00254913430B6015E0244B00221A60D0
:100E1800FFF76EFC386108E0FFF76AFC02463B69A1
:100E2800D31A022B01D9032387E11B4B1B6803F05C
:100E38000203002BF0D17B681B6803F00803002B2A
:100E480036D07B685B69002B16D0154B01221A60DF
:100E5800FFF74EFC386108E0FFF74AFC02463B69A1
:100E6800D31A022B01D9032367E10B4B5B6F03F005
:100E78000203002BF0D01BE0094B00221A60FFF799
:100E880037FC38610EE0FFF733FC02463B69D31AA2
:100E9800022B07D9032350E10038024000004742E3
:100EA800800E4742884B5B6F03F00203002BEAD1A8
:100EB8007B681B6803F00403002B00F09780002375
:100EC800FB75814B1B6C03F08053002B0FD1002363
:100ED800BB607D4B1B6C7C4A43F0805313647A4B98
:100EE8001B6C03F08053BB60BB680123FB75774B19
:100EF8001B6803F48073002B18D1744B1B68734A6A
:100F080043F480731360FFF7F3FB386108E0FFF7E1
:100F1800EFFB02463B69D31A022B01D903230CE1EC
:100F28006A4B1B6803F48073002BF0D07B689B68C6
:100F3800012B06D1644B1B6F634A43F0010313670F
:100F48001CE07B689B68052B0CD15F4B1B6F5E4ACE
:100F580043F0040313675C4B1B6F5B4A43F00103C8
:100F680013670BE0584B1B6F574A23F001031367B5
:100F7800554B1B6F544A23F0040313677B689B6827
:100F8800002B15D0FFF7B4FB38610AE0FFF7B0FB80
:100F980002463B69D31A41F28832934201D90323AE
:100FA800CBE0494B1B6F03F00203002BEED014E09B
:100FB800FFF79EFB38610AE0FFF79AFB02463B69A0
:100FC800D31A41F28832934201D90323B5E03E4B4C
:100FD8001B6F03F00203002BEED1FB7D012B05D123
:100FE800394B1B6C384A23F0805313647B689B6928
:100FF800002B00F0A180344B9B6803F00C03082BF6
:101008005CD07B689B69022B41D1314B00221A606E
:10101800FFF76EFB386108E0FFF76AFB02463B69A1
:10102800D31A022B01D9032387E0274B1B6803F04F
:101038000073002BF0D17B68DA697B681B6A1A435E
:101048007B685B6A9B011A437B689B6A5B08013B70
:101058001B041A437B68DB6A1B061B4913434B605E
:101068001B4B01221A60FFF743FB386108E0FFF7CA
:101078003FFB02463B69D31A022B01D903235CE0EC
:10108800114B1B6803F00073002BF0D054E0104B99
:1010980000221A60FFF72CFB386108E0FFF728FBF5
:1010A80002463B69D31A022B01D9032345E0064BBC
:1010B8001B6803F00073002BF0D13DE07B689B694F
:1010C800012B07D1012338E00038024000700040AE
:1010D800600047421B4B5B68FB607B689B69012B88
:1010E80028D0FB6803F480027B68DB699A4221D12F
:1010F800FB6803F03F027B681B6A9A421AD1FA68C0
:1011080047F6C07313407A68526A9201934211D12C
:10111800FB6803F440327B689B6A5B08013B1B0455
:101128009A4207D1FB6803F070627B68DB6A1B0692
:101138009A4201D0012300E0002318461837BD4623
:1011480080BD00BF0038024080B584B000AF786031
:1011580039607B68002B01D10123CCE0684B1B6808
:1011680003F007033A689A420CD9654B3A68D2B241
:101178001A70634B1B6803F007033A689A4201D060
:101188000123B8E07B681B6803F00203002B20D022
:101198007B681B6803F00403002B05D0594B9B6840
:1011A800584A43F4E05393607B681B6803F00803D4
:1011B800002B05D0534B9B68524A43F4604393601D
:1011C800504B9B6823F0F0027B689B684D491343A2
:1011D8008B607B681B6803F00103002B44D07B689D
:1011E8005B68012B07D1474B1B6803F40033002BC6
:1011F80019D101237FE07B685B68022B03D07B68F1
:101208005B68032B07D13F4B1B6803F00073002B6F
:1012180009D101236FE03B4B1B6803F00203002B4D
:1012280001D1012367E0374B9B6823F003027B68F9
:101238005B68344913438B60FFF75AFAF8600AE099
:10124800FFF756FA0246FB68D31A41F288329342F6
:1012580001D903234FE02B4B9B6803F00C027B68FA
:101268005B689B009A42EBD1254B1B6803F0070390
:101278003A689A420CD2224B3A68D2B21A70204B82
:101288001B6803F007033A689A4201D0012332E051
:101298007B681B6803F00403002B08D0194B9B687C
:1012A80023F4E0527B68DB68164913438B607B6844
:1012B8001B6803F00803002B09D0124B9B6823F42A
:1012C80060427B681B69DB000E4913438B6000F0AA
:1012D80021F802460B4B9B681B0903F00F030A49D0
:1012E800CB5C22FA03F3094A1360094B1B681846C2
:1012F800FFF7BAF9002318461037BD4680BD00BF76
:10130800003C024000380240842100080000002010
:10131800040000202DE9B04F90B000AF00237B639C
:101328000023FB6300233B630023BB63594B9B688B
:1013380003F00C03082B0DD0082B00F2A180002B22
:1013480002D0042B03D09BE0534BBB639BE0534B71
:10135800BB6398E04F4B5B6803F03F037B634D4BE7
:101368005B6803F48003002B28D04A4B5B689B0919
:1013780000223B627A623B6AC3F308000021474BB4
:1013880003FB01F2002300FB03F31344434AA0FBD1
:101398000212FA620A46BA62FA6A1344FB627B6B6B
:1013A8000022BB61FA61D7E90623D7E90A01FEF7F3
:1013B8000FFF02460B461346FB6353E0354B5B6851
:1013C8009B0900223B617A613B69C3F3080A4FF02D
:1013D800000B52465B464FF000004FF000015901E8
:1013E80041EAD261500102460B46B2EB0A0863EBB0
:1013F8000B094FF000024FF000034FEA891343EA4C
:1014080098634FEA8812B2EB080463EB09054FF0C2
:1014180000024FF00003EB0043EA5473E200144665
:101428001D4614EB0A033B6045EB0B037B604FF052
:1014380000024FF00003D7E9004529468B022146F8
:1014480043EA915321468A02104619467B6B0022D3
:10145800BB60FA60D7E90223FEF7BAFE02460B46E4
:101468001346FB630B4B5B681B0C03F00303013350
:101478005B003B63FA6B3B6BB2FBF3F3BB6302E0CD
:10148800054BBB6300BFBB6B18464037BD46BDE884
:10149800B08F00BF003802400024F40040787D017E
:1014A80080B400AF034B1B681846BD465DF8047B4B
:1014B800704700BF0000002080B500AFFFF7F0FFC5
:1014C8000246054B9B689B0A03F007030349CB5C64
:1014D80022FA03F3184680BD003802409421000820
:1014E80080B500AFFFF7DCFF0246054B9B685B0B3E
:1014F80003F007030349CB5C22FA03F3184680BDC7
:10150800003802409421000880B582B000AF7860AE
:101518007B68002B01D1012342E07B6893F84130BE
:10152800DBB2002B06D17B68002283F84020786864
:1015380000F0E8FC7B68242283F841207B681B6864
:10154800DA687B681B6822F40052DA60786800F079
:1015580009FA7B681B681A697B681B6822F4904249
:101568001A617B681B685A697B681B6822F02A022B
:101578005A617B681B68DA687B681B6842F4005212
:10158800DA607B6800225A647B68202283F8412055
:101598007B68202283F842207B6800225A6300235C
:1015A80018460837BD4680BD80B58AB002AFF860DE
:1015B800B9603B601346FB8000237B61FB6893F8AE
:1015C8004130DBB2202B75D1BB68002B02D0FB88E1
:1015D800002B01D101236EE0FB6800225A64FB68EE
:1015E800212283F84120FFF783F87861FB68FA88A5
:1015F8009A84FB68FA88DA84FB689B68B3F5805F95
:1016080008D1FB681B69002B04D10023FB61BB6870
:10161800BB6103E0BB68FB610023BB612EE03B6854
:1016280000937B6900228021F86800F0DFF8034608
:10163800002B05D0FB68202283F8412003233AE0E1
:10164800FB69002B0BD1BB691B881A46FB681B681A
:10165800C2F308025A60BB690233BB6107E0FB6949
:101668001A78FB681B685A60FB690133FB61FB68E9
:10167800DB8C9BB2013B9AB2FB68DA84FB68DB8C9B
:101688009BB2002BCBD13B6800937B6900224021A1
:10169800F86800F0ABF80346002B05D0FB68202261
:1016A80083F84120032306E0FB68202283F84120C9
:1016B800002300E0022318462037BD4680BD80B5D0
:1016C8008AB002AFF860B9603B601346FB80002324
:1016D8007B61FB6893F84230DBB2202B40F08180BD
:1016E800BB68002B02D0FB88002B01D1012379E0D5
:1016F800FB6800225A64FB68222283F84220FB68B8
:1017080000221A63FEF7F4FF7861FB68FA889A856D
:10171800FB68FA88DA85FB689B68B3F5805F08D1B7
:10172800FB681B69002B04D10023FB61BB68BB610C
:1017380003E0BB68FB610023BB6147E03B680093A3
:101748007B6900222021F86800F050F80346002B3E
:1017580005D0FB68202283F84220032342E0FB697E
:10176800002B0CD1FB681B685B689BB2C3F30803B2
:101778009AB2BB691A80BB690233BB611FE0FB6880
:101788009B68B3F5805F07D0FB689B68002B0AD184
:10179800FB681B69002B06D1FB681B685B68DAB223
:1017A800FB691A7008E0FB681B685B68DBB203F032
:1017B8007F03DAB2FB691A70FB690133FB61FB68CE
:1017C800DB8D9BB2013B9AB2FB68DA85FB68DB8D47
:1017D8009BB2002BB2D1FB68202283F84220002361
:1017E80000E0022318462037BD4680BD80B586B08C
:1017F80000AFF860B9603B601346FB713BE03B6AA1
:10180800B3F1FF3F37D0FEF773FF02463B68D31AA8
:101818003A6A9A4202D33B6A002B01D103233AE089
:10182800FB681B68DB6803F00403002B23D0BB684C
:10183800802B20D0BB68402B1DD0FB681B681B6821
:1018480003F00803082B16D100237B61FB681B6893
:101858001B687B61FB681B685B687B617B69F86858
:1018680000F01DF8FB6808225A64FB68002283F820
:10187800402001230FE0FB681B681A68BB6813400F
:10188800BA689A420CBF01230023DBB21A46FB79DF
:101898009A42B4D0002318461837BD4680BD80B49C
:1018A80095B000AF78607B681B680C337B637B6BFB
:1018B80053E8003F3B633B6B23F49073FB647B6806
:1018C8001B680C33FA6C3A64FB63F96B3A6C41E8B9
:1018D8000023BB63BB6B002BE5D17B681B6814330B
:1018E8003B623B6A53E8003FFB61FB6923F001035D
:1018F800BB647B681B681433BA6CFA62BB62B96A52
:10190800FA6A41E800237B627B6A002BE5D17B6899
:101918001B6B012B19D17B681B680C33FB60FB68C0
:1019280053E8003FBB60BB6823F010037B647B680F
:101938001B680C337A6CBA617B617969BA6941E8D2
:1019480000233B613B69002BE5D17B68202283F8AB
:1019580042207B6800221A6300BF5437BD465DF8F9
:10196800047B70472DE9B04FC0B000AFC7F8F40052
:10197800D7F8F4301B681B6923F44050D7F8F430CB
:10198800D968D7F8F4301A6840EA01031361D7F828
:10199800F4309A68D7F8F4301B691A43D7F8F43052
:1019A8005B691A43D7F8F430DB691343C7F8F8309A
:1019B800D7F8F4301B68DB6823F4164121F00C01DA
:1019C800D7F8F4301A68D7F8F8300B43D360D7F853
:1019D800F4301B685B6923F44070D7F8F4309969D8
:1019E800D7F8F4301A6840EA01035361D7F8F430A5
:1019F8001A688F4B9A4205D0D7F8F4301A688D4B85
:101A08009A4204D1FFF76CFDC7F8FC0003E0FFF72A
:101A180053FDC7F8FC00D7F8F430DB69B3F5004F85
:101A280040F00C81D7F8FC300022C7F8E830C7F83E
:101A3800EC20D7E93A4522462B469118B9655B4117
:101A4800FB65D7E91623214612EB0108294643EB2B
:101A580001094FF000024FF000034FEAC90343EABF
:101A680058734FEAC80290469946234618EB030379
:101A7800C7F8E0302B4649EB0303C7F8E430D7F842
:101A8800F4305B680022C7F8D830C7F8DC20D7E903
:101A980036120B46DB183B65134642EB03037B65A6
:101AA800D7E91423D7E93801FEF792FB02460B4623
:101AB800614BA3FB02235B091C01D7F8FC30002211
:101AC800C7F8D030C7F8D420D7E9348942464B4606
:101AD8009118B9645B41FB64D7E91223414612EBC4
:101AE800010A494643EB010B4FF000024FF0000397
:101AF8004FEACB0343EA5A734FEACA0292469B461F
:101B080043461AEB0303C7F8C8304B464BEB0303B5
:101B1800C7F8CC30D7F8F4305B680022C7F8C0307B
:101B2800C7F8C420D7E930120B46DB183B641346CC
:101B380042EB03037B64D7E91023D7E93201FEF7B0
:101B480047FB02460B4611463B4BA3FB01235B09AF
:101B5800642202FB03F3CB1ADB0003F13202364B9B
:101B6800A3FB02235B095B0003F4F8731C44D7F85A
:101B7800FC300022C7F8B830C7F8BC20D7E92E8956
:101B880042464B469118B9635B41FB63D7E90E2384
:101B980041465118396349464B417B634FF0000277
:101BA8004FF00003D7E90CAB5946CB00514643EA46
:101BB80051735146CA0010461946034642469B18BF
:101BC800C7F8B0304B460A4642EB0303C7F8B430B7
:101BD800D7F8F4305B680022C7F8A830C7F8AC2003
:101BE800D7E92A120B46DB18BB62134642EB030304
:101BF800FB62D7E90A23D7E92C01FEF7E9FA024686
:101C08000B460D4BA3FB02135B09642101FB03F395
:101C1800D31ADB003233084AA2FB03235B0903F023
:101C28000702D7F8F4301B6822449A6006E100BF27
:101C380000100140001401401F85EB51D7F8FC301B
:101C48000022C7F8A030C7F8A420D7E9288942465F
:101C58004B46911839625B417B62D7E908234146BC
:101C68005418494643EB01054FF000024FF00003BA
:101C7800EB0043EA5473E20014461D464346E3185A
:101C8800C7F898304B4645EB0303C7F89C30D7F8A4
:101C9800F4305B680022C7F89030C7F894204FF002
:101CA80000024FF00003D7E9244529468B0021465E
:101CB80043EA917321468A00D7E92601FEF788FA9C
:101CC80002460B46604BA3FB02235B091C01D7F8B5
:101CD800FC300022C7F88830C7F88C20D7E9228961
:101CE80042464B469118B9615B41FB61D7E906232F
:101CF80041465118396149464B417B614FF000021A
:101D08004FF00003D7E904AB5946CB00514643EAEC
:101D180051735146CA0010461946034642469B185D
:101D2800C7F880304B460A4642EB0303C7F88430B5
:101D3800D7F8F4305B680022BB67FA674FF00002FF
:101D48004FF00003D7E91E8949468B00414643EA14
:101D5800917341468A00D7E92001FEF739FA024615
:101D68000B461146384BA3FB01235B09642202FB97
:101D780003F3CB1A1B013233334AA2FB03235B095B
:101D880003F0F0031C44D7F8FC3000223B677A6765
:101D9800D7E91C8942464B469118B9605B41FB6004
:101DA800D7E9022341465118396049464B417B60C7
:101DB8004FF000024FF00003D7E900AB5946CB00C3
:101DC800514643EA51735146CA0010461946034624
:101DD80042469B18BB664B460A4642EB0303FB662A
:101DE800D7F8F4305B6800223B667A664FF0000251
:101DF8004FF00003D7E9188949468B00414643EA6A
:101E0800917341468A00D7E91A01FEF7E1F90246C3
:101E18000B460D4BA3FB02135B09642101FB03F383
:101E2800D31A1B013233084AA2FB03235B0903F0D0
:101E38000F02D7F8F4301B6822449A6000BF07F5F8
:101E48008077BD46BDE8B08F1F85EB5180B586B061
:101E580000AF3B1D00221A605A609A60DA601A616E
:101E680000233B60104B1B6B0F4A43F001031363C5
:101E78000D4B1B6B03F001033B603B6800222021E4
:101E88000A48FEF7CFFE20237B600123BB600023B6
:101E9800FB6000233B613B1D19460448FEF73EFDED
:101EA80000BF1837BD4680BD003802400000024020
:101EB80080B500AF114B124A1A60104B4FF4E13253
:101EC8005A600E4B00229A600C4B0022DA600B4BD2
:101ED80000221A61094B0C225A61084B00229A61B0
:101EE800064B0022DA610548FFF70EFB0346002B7C
:101EF80001D000F005F900BF80BD00BF2C00002014
:101F08000010014080B58AB000AF786007F1140373
:101F180000221A605A609A60DA601A617B681B684E
:101F2800194A93422CD100233B61184B5B6C174A2A
:101F380043F010035364154B5B6C03F010033B61D3
:101F48003B690023FB60114B1B6B104A43F00103F4
:101F580013630E4B1B6B03F00103FB60FB684FF42C
:101F6800C0637B610223BB610023FB6103233B62E7
:101F780007237B6207F1140319460548FEF7CEFCD8
:101F880000BF2837BD4680BD001001400038024020
:101F98000000024080B582B000AF786039603B68CD
:101FA8009AB24FF0FF3379680348FFF7FDFA00BF94
:101FB8000837BD4680BD00BF2C00002080B582B028
:101FC80000AF786039603B689AB24FF0FF337968A8
:101FD8000348FFF774FB00BF0837BD4680BD00BF4C
:101FE8002C00002080B582B000AFFEF71BFB00F08C
:101FF80029F8FFF72BFFFFF75BFF00237B603B7996
:10200800012B05D1012220210D48FEF70BFE04E02B
:10201800002220210A48FEF705FE3B1D0421184630
:10202800FFF7CCFF4FF47A70FEF76EFB3B1D0421DF
:102038001846FFF7AFFF4FF47A70FEF765FBDEE74F
:102048000000024080B594B000AF07F120033022B1
:102058000021184600F05AF807F10C0300221A6014
:102068005A609A60DA601A610023BB60224B1B6CCD
:10207800214A43F0805313641F4B1B6C03F08053B9
:10208800BB60BB6800237B601C4B1B681B4A43F486
:1020980040431360194B1B6803F440437B607B6823
:1020A80002233B620123FB6210233B630023BB63D3
:1020B80007F120031846FEF7CFFD0346002B01D099
:1020C80000F01EF80F23FB6000233B6100237B61B7
:1020D8000023BB610023FB6107F10C0300211846B4
:1020E800FFF732F80346002B01D000F009F800BFD3
:1020F8005037BD4680BD00BF003802400070004028
:1021080080B400AF72B600BF00BFFDE702440346CB
:10211800934200D1704703F8011BF9E770B50D4DE4
:102128000D4C641BA4100026A64209D10B4D0C4C83
:1021380000F018F8641BA4100026A64205D170BD53
:1021480055F8043B98470136EEE755F8043B9847A5
:102158000136F2E7A4210008A4210008A421000800
:10216800A8210008F8B500BFF8BC08BC9E46704717
:0C217800F8B500BFF8BC08BC9E467047DC
:102184000000000000000000010203040607080923
:08219400000000000102030439
:08219C006CE0FF7F0100000070
:0421A400BD01000871
:0421A8009901000891
:0C21AC000024F4001000000001000000FE
:04000005080005D911
:00000001FF
